:020000040800F2
:10000000C008002079020008DF220008111F000844
:10001000DD22000859080008EB2500080000000058
:10002000000000000000000000000000E3220008C3
:100030000D09000800000000E1220008E522000888
:10004000930200089302000893020008930200083C
:10005000930200089302000893020008930200082C
:10006000930200089302000893020008930200081C
:10007000930200089302000893020008930200080C
:100080009302000893020008930200080000000099
:1000900000000000000000000000000093020008C3
:1000A00093020008930200089302000893020008DC
:1000B00093020008930200089302000893020008CC
:1000C00093020008930200089302000893020008BC
:1000D0009302000893020008930200080000000049
:1000E0009302000893020008930200080000000039
:1000F0000000000000000000000000009302000863
:100100000000000093020008930200089302000818
:1001100000000000000000000000000000000000DF
:100120005D0800089302000893020008930200088B
:100130009302000800000000000000000000000022
:100140000000000000000000000000009302000812
:10015000930200089302000893020008930200082B
:100160009302000893020008000000000000000055
:10017000000000000000000000000000000000007F
:1001800000000000930200080000000000000000D2
:10019000930200089302000800F002F800F043F810
:1001A0000AA090E8000C82448344AAF10107DA45D2
:1001B00001D100F038F8AFF2090EBAE80F0013F0E1
:1001C000010F18BFFB1A43F001031847582800001D
:1001D00078280000103A24BF78C878C1FAD85207AE
:1001E00024BF30C830C144BF04680C6070470000B1
:1001F0000023002400250026103A28BF78C1FBD830
:10020000520728BF30C148BF0B607047642900F017
:100210001381002070471FB502F0EEFB00F05DF97E
:100220001FBD10B510BD00F002FA1146FFF7F3FF35
:1002300002F08CFA00F020FA03B4FFF7F2FF03BCDF
:1002400000F028FA0B49D1F800C04A685CF8043B7A
:100250001068184442F8040B8C4528BFA1F1DC0C4F
:100260008A4228BFA1F1DC02C1F800C04A6020F038
:10027000004070475802002009488047094800475D
:10028000FEE7FEE7FEE7FEE7FEE7FEE7FEE7FEE746
:10029000FEE7FEE704480549054A064B70470000A3
:1002A0007923000899010008C0020020C00800203E
:1002B000C0040020C004002053EA020C00F0698052
:1002C0002DE9F04B4FF00006002B1FBFB3FA83F56A
:1002D00003FA05F424FA05F65E4012BF1643B2FA9B
:1002E00082F502FA05F4C5F120051EBF22FA05FCCD
:1002F00044EA0C04203556EA044C4FEA144418BF73
:10030000641C4FF000084FF00009904271EB030CA1
:1003100039D3002919BFB1FA81F701FA07F6B0FA0B
:1003200080F700FA07F6C7F120071EBF20FA07FC86
:1003300046EA0C062037B6FBF4FCA7EB0507103F96
:1003400007F01F0BCBF120060CFA0BFB2CFA06F67C
:1003500044BFB3460026202FA4BF5E464FF0000BDB
:100360005BEA060C08BF4FF0010B19EB0B09ABFB66
:10037000027C48EB0608C01B06FB02CC0BFB03CC3F
:1003800071EB0C01C1E70B46024641464846BDE809
:10039000F08B13B54FF000004FF00001AFF3008079
:1003A000BDE81C40704700000FB41CB5074B06AAFF
:1003B0007B4469460090059800F021F900206946C9
:1003C00000F030F91CBC5DF814FB00007102000065
:1003D0002DE9F0410E460446002020622046E168E7
:1003E000884730B3252805D0D4E901219047206AF9
:1003F000401CF2E7E168204600278847050018D036
:10040000A5F14100192802D820354FF40067324683
:10041000294620462760FFF7F9FE40B1012804D0A5
:10042000F61D26F007060836D8E7361DD6E728461B
:10043000DAE7206ABDE8F0812DE9F04106460024A4
:1004400010687529314616A510D0AFF3008000283A
:1004500002DA404213A507E031688A0701D512A5E8
:1004600002E0490704D511A5012401E0AFF30080A3
:1004700000210A2206F1240709E0B0FBF2FCB0FBE0
:10048000F2F302FB1C00303078541846491C002857
:10049000F3D123462A463046BDE8F04100F050B87B
:1004A000000000002D0000002B00000020000000D4
:1004B0000B4910B5A1F17C020A4CC2E93712372171
:1004C00006E000EB104342F82130074B00FB0340ED
:1004D0000B1EA1F10101F4DC10BD0120E8E70000D2
:1004E000F8010020E119D666CD0D01004FF00002A1
:1004F00000B5134694469646203922BFA0E80C501A
:10050000A0E80C50B1F12001BFF4F7AF090728BFF4
:10051000A0E80C5048BF0CC05DF804EB890028BF70
:1005200040F8042B08BF704748BF20F8022B11F099
:10053000804F18BF00F8012B704770477047704715
:100540002DE9F0470D4699469246044600F12408ED
:100550000168880604D5E06921F01001216000E0FF
:100560000120A84201DD471B00E00027A1697A199C
:1005700002EB0900081AA0612078C00602D42046C8
:10058000AFF30080002608E0D4E901211AF8060044
:100590009047206A401C761C20624E45F4DB207890
:1005A000C0060AD52046AFF3008006E0D4E9012159
:1005B00030209047206A401C2062381EA7F10107B6
:1005C000F4DC07E0D4E9012118F805009047206A1F
:1005D000401C2062281EA5F10105F3DC2046AFF384
:1005E00000802078000602D50220BDE8F0870120B7
:1005F000FBE7000001694A1C02610878704700B5FA
:100600008FB0CDE901310021059105497944CDE94B
:10061000031011466846FFF7DBFE0FB000BD000077
:10062000E5FFFFFF0A6802F8010B0A607047754694
:1006300000F02CF8AE4605006946534620F007004E
:10064000854618B020B5FFF725FEBDE820404FF0E5
:1006500000064FF000074FF000084FF0000B21F0AC
:100660000701AC46ACE8C009ACE8C009ACE8C00979
:10067000ACE8C0098D46704710B50446AFF3008062
:100680002046BDE81040FFF7D7BD00000048704786
:100690006002002001491820ABBEFEE726000200E0
:1006A000704710B50146806B026C12F0500F05D0F8
:1006B000026CD20626D500F008FA10BD016C41F498
:1006C0000071016401688A6812F0405F17D1027EF0
:1006D000AAB9CA6A12F4700F02D08A6852050ED401
:1006E0004A6822F020024A60016C21F480710164A2
:1006F000016CC90403D4016C41F00101016400F0F4
:10070000BBF910BD806BC26CBDE8104008461047B5
:1007100010B5806B40210164416C41F004014164DB
:1007200000F0D3F910BD10B5806B00F0CDF910BD0D
:10073000464910B54A6822F440324A604A68436824
:100740001A434A6001684A6822F480724A6001686C
:100750004A68036942EA03224A6001684A6822F053
:1007600040724A6001684A6883681A434A600168B7
:100770008A6822F400628A6001688A68C3681A4342
:100780008A60816A6FF07062D14201688A6822F0E3
:1007900070628A6001688A680CD0836A1A438A6032
:1007A00001688A6822F040528A6001688A68C36AD8
:1007B0001A4301E022F040528A6001688A6822F000
:1007C00002028A6001688A68037E42EA43028A6004
:1007D00090F82010002901684A680FD042F40062A6
:1007E0004A6001684A6822F460424A6001684A68C7
:1007F000174C436A04EB43331A4301E022F40062CE
:100800004A600168CA6A22F47002CA620168CA6A50
:10081000838B104C04EB03531A43CA6201688A6845
:1008200022F400728A6001688A6890F8303042EAE7
:1008300043228A6001688A6822F480628A600168C3
:100840008A68406942EA8020886010BD0023014028
:1008500000E0FFFF0000F0FFFEE70000014800F0AD
:100860003DBA00001C01002001681823CAB2103AEA
:10087000B2FBF3F2054B6FF30901032A9B5CC365DE
:1008800000D9091D8165084670470000022A00084A
:1008900010B5014600208B698A6A4FF0C07453B1CD
:1008A000B3F5005F15D072B1012A0CD0022A0AD02C
:1008B000032A09D104E01AB1012A06D0022A03D181
:1008C000C96AC90100D5012010BDC96AA142FAD088
:1008D00010BD002AF7D0012AF2D0022AF3D0032A51
:1008E000F3D010BD30B50468256825F48025256057
:1008F000046863608368402B036803D099600068D4
:10090000C26030BD9A600068C16030BD704772B689
:10091000FEE7000078B50024009490F83C20012AFE
:1009200019D0012280F83C200A6807230568092AAB
:1009300013D9EE680A3A02EB420293409E43EE60FE
:100940000B788A680A3B03EB43039A400368DD682F
:100950002A43DA6010E0022078BD2E6902EB4202E1
:1009600093409E432E610B788A6803EB43039A40C1
:1009700003681D692A431A614A681F23072A13D294
:1009800005686E6B521E02EB820293409E436E63BB
:100990000A8893B20A79521E02EB820293400268DF
:1009A000556B2B43536327E005680D2A12D22E6B3B
:1009B000D21F02EB820293409E432E630B790A887A
:1009C000DB1F92B203EB83039A4003681D6B2A433B
:1009D0001A6311E0EE6A0D3A02EB820293409E43E5
:1009E000EE620B790A880D3B92B203EB83039A40C7
:1009F0000368DD6A2A43DA621B4B0568194A9D4287
:100A00000AD10D68122D07D1556825F400055560EF
:100A1000556845F48005556005689D421DD1134D0C
:100A20000B68AB4201D0112B17D1536823F480031C
:100A30005360536843F4000353600968A9420CD122
:100A40000B490C4A0968B1FBF2F101EB8101490045
:100A500000E0491E00910029FBD180F83C400020B5
:100A600078BD00000023014000200140120000106A
:100A70003400002040420F00124810B5028841881F
:100A800040F2E7330E38A2F2DD529A420AD2B1F5B3
:100A9000FA7F07D24478641CE4B24470142C01D964
:100AA000142444709A420BD240F6AC52914207D9BA
:100AB0004178491E11F0FF01417001D101214170BF
:100AC00010BD00000E0000207047704770B5040094
:100AD0004FF0000503D0206C002610B107E0012084
:100AE00070BD204600F01CF8666484F83C60206C01
:100AF000C00610D4206C20F4885040F0020020641E
:100B00002046FFF715FE6664206C20F0020040F0DE
:100B10000100206400E0012584F83C60284670BD97
:100B200070B586B0064614216846FFF7DFFC1D4904
:100B30003068884233D11C480025016841F4807137
:100B40000160006800F4807005901748143801684F
:100B500041F0010101600068694600F00100059064
:100B600003200090CDE90105104800F03BFA114C3C
:100B70000F48C4E900050015A560C4E90350400012
:100B800060618000A0614011C4E9070520466562EC
:100B900000F074F908B1FFF7BAFEB463A66306B0BB
:100BA00070BD0000002001404438024000000240B7
:100BB000106402401C010020F8B5044600200E46D7
:100BC000009094F83C10012907D0012184F83C10D2
:100BD00021688B68DB0702D011E00220F8BD8B682A
:100BE00043F001038B603649364B0968B1FBF3F1E2
:100BF00001EB410100E0491E00910029FBD1216871
:100C00008B68DB0503D58B6823F480738B602168C8
:100C10008B68DB0749D0236C40F20165AB4343F49A
:100C2000807323644968490505D5216C21F400517E
:100C300041F480512164216CC90404D5616C21F018
:100C40000601616400E0606484F83C00A16B1F4809
:100C50001D4DC863A16B1E480864A16B1D48C86484
:100C600021686FF0220008602068416841F08061CF
:100C700041602068816841F4807181602168134679
:100C800032464C31A06B00F063F96868C0062068FA
:100C900002D01149884210D1816811F0405F0CD117
:100CA000816841F08041816007E0206C40F01000D5
:100CB0002064606C40F0010060640020F8BD00001A
:100CC0003400002040420F0000230140A30600082A
:100CD0002707000811070008002001402DE9F8430C
:100CE00004464FF00009CDF8009063484FF41651C8
:100CF000A56D0068B0FBF1F72E6894F85C10082031
:100D000000FA01F131420FD021680A6852070BD571
:100D10000A6822F004020A6094F85C108840A86017
:100D2000606D40F00100606594F85C104FF00108C0
:100D300008FA01F0304208D021684969090604D553
:100D4000A860606D40F00200606594F85C100420BB
:100D50008840304208D021680968890704D5A86016
:100D6000606D40F00400606594F85C1010208840CD
:100D7000304218D021680968090714D5A860206896
:100D80000168490304D50068000308D5A16C07E099
:100D90000168C90503D4016821F008010160216CD4
:100DA00009B12046884794F85C10202088403042E2
:100DB00031D021680968C9062DD5A86094F835009E
:100DC00005282068016806D0490347D5006800035C
:100DD0001DD4616C1CE021F016010160206841699E
:100DE00021F080014161206C08B9A06C20B120681D
:100DF000016821F00801016094F85C103F208840F0
:100E0000A86084F8358084F83490216D1FE0E16B90
:100E100009B120468847606D00282BD0606DC0075F
:100E200014D0052084F835002068016821F0010104
:100E300001600098401C0090B84203D82068006808
:100E4000C007F6D184F8358084F83490E16C00292D
:100E500010D001B02046BDE8F04308470168C9053D
:100E6000D5D4016821F01001016084F8358084F840
:100E70003490CCE7BDE8F883340000202DE9F04140
:100E8000044600F09FF906465CB1022084F8350064
:100E9000002584F834502068016821F001010160C8
:100EA0000DE00120BDE8F08100F08CF9801B0528E1
:100EB00005D920206065032084F83500F2E720681A
:100EC0000068C007F0D12268116820480140D4E9C9
:100ED00001031843D4E903363343184363691843C5
:100EE000A3691843E3691843236A18430843616AF6
:100EF000042903D1D4E90B13194308431060206877
:100F00004069666A20F0070130460E430127042835
:100F10000CD1A06A0643E06A40B12046FFF7B8FC56
:100F200020B14020606584F83570BAE720684661DA
:100F30002046FFF799FC94F85C203F2191408160A6
:100F4000656584F835700020ACE700003F8010F044
:100F50002DE9F0410446866D90F834000025012803
:100F60000DD0012084F8340094F835700020012F52
:100F700007D084F8340002252846BDE8F08102201D
:100F8000FBE7022784F8357060652046FFF7AAFC6E
:100F900094F85C103F208840B0602068016841F000
:100FA00016010160206C20B12068016841F0080141
:100FB00001602068016841F001010160DCE7000088
:100FC00070B5044600F0FEF80546601C02D00448E7
:100FD0000078044400F0F6F8401BA042FAD370BD3C
:100FE000280000202DE9F84FDFF8B8A100220124E5
:100FF00003254FF00F090AF1040BAAF1040E00BFFC
:101000000B6804FA02F63340B34273D10F7907F04C
:101010000307012F01D0022F16D187684FEA42083B
:1010200005FA08FC27EA0C07D1F80CC00CFA08FCFA
:101030004CEA070CC0F808C04768B7430E79C6F3FE
:10104000001696403E4346600E79F643B6070DD033
:10105000C768560005FA06FC27EA0C07D1F808C055
:101060000CFA06FC4CEA070CC0F80CC00E7906F02E
:101070000306022E10D1D60800EB8608D8F82060AF
:1010800057074FEAD76C09FA0CF7BE430F6907FA06
:101090000CF73743C8F8207006684FEA420C05FA8F
:1010A0000CF7BE430F7907F0030707FA0CF7374335
:1010B00007604E6816F4403F6DD03B4E376847F4EA
:1010C00080473760366822F0030706F480460096B2
:1010D000364E07EB060CDCF8086897073F0F09FA55
:1010E00007F826EA0806DFF8C880404503D14FF02C
:1010F00000081EE04FE0DFF8BC80404502D14FF011
:10110000010816E0DFF8B080404502D14FF0020838
:101110000FE0DFF8A880404502D14FF0030808E057
:10112000DFF89C80404502D14FF0040801E04FF009
:10113000070808FA07F848EA0608CCF80888DAF839
:1011400000605746D1F804C09E435FEACC2C00D51E
:101150001E433E60DBF800605F46D1F804C09E434A
:101160005FEA8C2C00D51E433E60DEF800607746B7
:10117000D1F804C09E435FEA8C3C00D51E433E601C
:10118000084F083F3E68D1F804C09E435FEACC3C5C
:1011900000D51E433E60521C102AFFF431AFBDE85B
:1011A000F88F0000083C0140443802400030014004
:1011B000000002400004024000080240000C02400F
:1011C000001002400148806870470000280000209D
:1011D00070B5040025D094F83D00002520B984F8AE
:1011E0003C50204600F04EF9242084F83D00206851
:1011F000016821F0010101602068016841F40041AB
:1012000001602068016821F40041016000F0A2FA49
:101210004D4A6168914201D84C4900E04C498842EE
:1012200001D2012070BD4B492368B0FBF1F15E682B
:1012300026F03F060E435E606368934206D94FF482
:10124000967359434FF47A73B1FBF3F12368491C49
:101250001E6A26F03F06314319626168914210D838
:101260004900401EB0FBF1F2521CC2F30B02042AEB
:1012700001D2042022E0B0FBF1F0401CC0F30B00CF
:101280001CE0A268F2B301EBC10303EB0116431E9D
:10129000B3FBF6F35B1C43F480431B0549D092B3C8
:1012A00001EBC10202EB0111401EB0FBF1F0401C4A
:1012B000C0F30B0040F4804040F400402168CA694C
:1012C0004CF6FF739A431043C861D4E907100143F9
:1012D0002068026822F0C00211430160D4E90301D2
:1012E00001432068826848F2FF339A4311438160CA
:1012F000D4E9050108432168CA6822F0FF021043BF
:10130000C86001E00EE016E02068016841F00101CC
:1013100001602564202084F83D00256384F83E5058
:10132000002070BD01EB4106431EB3FBF6F35B1CCE
:10133000B3E70120C2E701EB4101401EB0FBF1F031
:10134000401CC0F30B00B7E7A086010080841E009C
:1013500000093D0040420F002DE9F84F1F4690461E
:101360008A460446DDF82890FFF72CFF054694F8DE
:101370003D0020287FD119230122404920460095B5
:1013800000F052FE002876D194F83C00012872D07B
:10139000012084F83C0020680168C90703D1016876
:1013A00041F0010101602068016821F400610160E1
:1013B000212084F83D00102084F83E000026266499
:1013C000C4F824806785608D20852D48E0622B4617
:1013D0004A465146204600F0B3FD90B92068416965
:1013E0008069009036E02A464946204600F09BFE80
:1013F00050B1206C042804D12068016841F40071C8
:1014000001600120BDE8F88F606A216800780861FA
:10141000606A401C6062618D491E6185218D491E94
:1014200089B2218522685369DB435B070BD451B134
:1014300000781061606A401C6062608D401E6085AB
:10144000208D401E20852A464946204600F0C6FDD4
:101450000028CED1208D0028C5D154F83D0B01685D
:1014600041F400710160202004F81E09E6776677D8
:101470000020C7E7FFE70220C4E7000002001000D9
:101480000000FFFF10B586B0044614216846FFF740
:101490002DF813492068884220D1124800210268A3
:1014A00042F002020260006800F002000590C020D5
:1014B00000901220CDE90101032003900420049044
:1014C00069460948FFF78EFD06481030016841F46F
:1014D00000110160006800F40010059006B010BD16
:1014E0000054004030380240000402400248816845
:1014F0000278114481607047280000200B4810B525
:10150000016841F400710160016841F4806101608B
:10151000016841F480710160032000F06FF80F2032
:1015200000F006F800F024F8002010BD003C024056
:1015300070B50D4D04464FF47A712878B1FBF0F088
:101540000A490968B1FBF0F000F0FCFA48B9102C28
:1015500007D200222146501E00F030F800206C60B7
:1015600070BD012070BD0000280000203400002064
:101570000A4808B5016841F480410160006800F440
:10158000804000900548001F016841F080510160D3
:10159000006800F08050009008BD00004438024010
:1015A000002809DB00F01F02012191404009800062
:1015B00000F1E020C0F8001170470000F0B40E4BBD
:1015C0001B680C46C3F30223C3F10705042D00D9A1
:1015D0000425191D072901D2002300E0DB1E012686
:1015E00006FA05F1491E214099409E40761E16409C
:1015F0003143F0BC00F0FABF0CED00E0064900F00A
:10160000070208684FF6FF03184040EA0220034A29
:1016100010430860704700000CED00E00000FA0580
:101620002DE9F0470E46050065D0DFF81481D8F8A3
:101630000000F7B200F00700B04207D288F800704F
:10164000D8F8000000F00700B04254D128683D4CA3
:10165000810712D5400703D5206840F4E050206090
:101660002878000703D5206840F460402060206897
:10167000A96820F0F000084320602878C0072DD02A
:10168000304968680839012812D0022813D003288D
:1016900011D00968890700292DDA216821F003019A
:1016A00001432160FFF78EFD814641F2883A0EE04A
:1016B00009688903EFE709688901ECE7FFF782FD14
:1016C000A0EB0901514502D90320BDE8F08720684D
:1016D000696800F00C00B0EB810FEFD1D8F8001072
:1016E000404601F00701B14207D90770006800F0D9
:1016F0000700B04201D00120E7E72878400705D570
:101700002068E96820F4E05008432060287800074A
:1017100006D52068296920F4604040EAC1002060B5
:1017200000F028F82168084AC1F30311515CC84051
:101730000649086006480068FFF7FAFE0020C4E783
:10174000003C0240083802400A2A00083400002009
:101750002C0000200448054900680968044AC1F3C8
:101760008221515CC8407047340000200838024094
:101770001A2A0008154810B5006810F00C02144829
:1017800013D01449042A0FD0082A0ED10F4C241F5D
:101790002268236802F03F025B0207D52068C0F38D
:1017A0008810A0FB010106E0084610BD2168C1F3C6
:1017B0008811A1FB00010023FEF77EFD2168C1F323
:1017C0000141491C4900B0FBF1F010BD083802404E
:1017D0000024F40040787D012DE9F84F04006ED01C
:1017E0002078DFF84C93C007A9F104054AD009F12D
:1017F00004000168C1F38101012908D00068C0F329
:10180000810002280AD1D9F80000400206D52868D4
:10181000800337D560680028E1D033E06068B0F518
:10182000803F10D0B0F5A02F286810D020F4803071
:101830002860286820F4802028606068A8B1FFF73D
:10184000C1FC06460DE0286840F48030F4E740F41F
:1018500080202860F7E700BFFFF7B4FC801B6428F6
:1018600073D828688003F7D50CE0FFF7ABFC064679
:1018700005E000BFFFF7A6FC801B6428F0D82868AD
:101880008003F7D42078DFF8AC8280074FF0000A9D
:101890003ED5A748001D016811F00C0F08D0006864
:1018A000C0F3810002280BD1D9F80000400207D410
:1018B0002868800716D5E068012800D112E033E1DE
:1018C000E068B8B10120C8F80000FFF77BFC0646CD
:1018D00005E000BFFFF776FC801B0228C0D828680F
:1018E0008007F7D52868216920F0F80040EAC10098
:1018F00028600DE0C8F800A0FFF764FC064604E08D
:10190000FFF760FC801B02281FD828688007F7D4E7
:101910002078000722D5864F87486169703771B1FA
:1019200001210160FFF74EFC064604E0FFF74AFC88
:10193000801B022809D838688007F7D50EE0C0F868
:1019400000A0FFF73FFC064605E082E0FFF73AFC07
:10195000801B02287DD838688007F7D4207840079C
:1019600068D5DFF8CCB100270BF13C0BDBF80000A9
:10197000C0000BD4DBF8001041F08051CBF8001010
:10198000DBF80000012700F0805000906B4E3068BB
:10199000C00510D4306840F480703060FFF712FC4E
:1019A000009005E0FFF70EFC0099401A022850D87D
:1019B0003068C005F6D55E4EA0686C3601280FD0A1
:1019C0000528306810D020F001003060306820F029
:1019D00004003060A068B8B1FFF7F4FB00900FE09E
:1019E000306840F00100F4E740F004003060F7E7B1
:1019F000FFF7E8FB0099411A41F28830814266D82E
:101A000030688007F4D50EE0FFF7DCFB009007E0BC
:101A1000FFF7D8FB0099411A41F28830814256D82D
:101A200030688007F4D42FB1DBF8001021F080512A
:101A3000CBF80010A069C8B33D49091D0968C1F37E
:101A4000810102294AD00228504607D0C8F8600018
:101A500000E03CE0FFF7B6FB04463BE04746C8F831
:101A60006000FFF7AFFB064605E000BFFFF7AAFBEB
:101A7000801B02282BD828688001F7D4D4E90701FD
:101A80000843A16A2E4A490802EB0141626A41EA11
:101A90008211084394F82C1040EA0161C9F8001043
:101AA00001203866FFF78EFB044606E03EE000BFEB
:101AB000FFF788FB001B022809D828688001F7D5AA
:101AC00034E000BFFFF77EFB001B022802D9032091
:101AD000BDE8F88F28688001F4D427E00128F7D00A
:101AE000D9F80000E26900F4800191421CD1226A19
:101AF00000F03F01914217D147F6C071626A014080
:101B0000B1EB821F10D1A26A4FF0FF3300F44031D5
:101B100003EB5202B1EB024F06D194F82C1000F007
:101B20007060B0EB016F01D00120D1E70020CFE75A
:101B30000438024000004742800E474200700040D7
:101B40000000FFFF10B5401EB0F1807F01D30120DF
:101B500010BD4FF0E02460610F21601700F046FDDA
:101B60000020A06107202061002010BD70B590F812
:101B70003C20012A2CD0012480F83C40022280F82D
:101B80003D2003685A689D6822F070060A68324357
:101B90005A60104B02689A420ED0B2F1804F0BD0BF
:101BA0000D4B9A4208D00D4B9A4205D00C4B9A42ED
:101BB00002D00C4B9A4204D1496825F080031943A6
:101BC000916080F83D40002180F83C10084670BDCF
:101BD000022070BD000001400004004000080040E9
:101BE000000C00400040014010B5040003D094F800
:101BF0003D0010B107E0012010BD002084F83C003A
:101C0000204600F01FF8022084F83D00211D2068C6
:101C100000F0BAFB012084F8460084F83E0084F806
:101C20003F0084F8400084F8410084F8420084F8C2
:101C3000430084F8440084F8450084F83D00002007
:101C400010BD000008B50068B0F1804F08D105480C
:101C5000016841F001010160006800F0010000909E
:101C600008BD00004038024090F83D10012901D025
:101C700001207047022180F83D100168CA6842F0D7
:101C80000102CA6000680E4988420ED0B0F1804F50
:101C90000BD00C49884208D00B49884205D00B492B
:101CA000884202D00A49884204D1816801F00701C4
:101CB000062903D0016841F001010160002070474E
:101CC000000001400004004000080040000C0040FB
:101CD0000040014070B5044690F83C000025012802
:101CE00017D0012684F83C60022084F83D0020686B
:101CF000826822F0770222F47F42826008685028CE
:101D000038D00DDC20284FD005DC90B3102811D13D
:101D10004AE0022070BD302846D040280AD13BE07E
:101D200060282FD070280DD0B0F5805F03D0B0F5BB
:101D3000005F12D0012584F83D60002084F83C004B
:101D4000284670BDCB68D1E90121206800F075FB01
:101D50002068816841F0770109E0CB68D1E9012171
:101D6000206800F06AFB2068816841F4804181604E
:101D7000E1E719E0CA684968206800F013FC5021C7
:101D8000206806E0CA684968206800F01CFC6021F1
:101D9000206800F05CFBCEE7CA684968206800F064
:101DA00001FC40212068F4E7226801461046F0E774
:101DB00070B5044690F83C00002501280FD00120A2
:101DC00084F83C006AB1042A0FD0082A11D00C2AEA
:101DD00013D00125002084F83C00284670BD022065
:101DE00070BD206800F03CFBF4E7206800F060FB69
:101DF000F0E7206800F088FBECE7206800F0B0FB1B
:101E0000E8E710B5040003D094F83D0010B107E0F6
:101E1000012010BD002084F83C00204600F01EF890
:101E2000022084F83D00211D206800F0ADFA012059
:101E300084F8460084F83E0084F83F0084F84000AF
:101E400084F8410084F8420084F8430084F8440098
:101E500084F8450084F83D00002010BD7047000064
:101E600010B50446022249B104290ED0082913D026
:101E700094F84100012816D0012010BD94F83E00CE
:101E80000128F9D184F83E200FE094F83F000128A2
:101E9000F2D184F83F2008E094F840000128EBD10B
:101EA00084F8402001E084F841200122206800F0FD
:101EB000B7FA12492068884203D1426C42F40042CA
:101EC0004264206888420ED0B0F1804F0BD00C499C
:101ED000884208D00B49884205D00B49884202D07D
:101EE0000A49884204D1816801F00701062903D01C
:101EF000016841F001010160002010BD00000140B7
:101F00000004004000080040000C00400040014078
:101F1000FEE701684A69D24352050FD46FF480622C
:101F20004A61002140F8301F202242738173026908
:101F300042F00402026101730120704700207047E3
:101F4000F8B50446C06A1E460D461746082807D055
:101F5000012805D010F5803F02D0206B122804D153
:101F60002068016841F480710160134600224FF03F
:101F700001112046009600F057F840B12068006833
:101F8000C00502D54FF4007020640320F8BD20691D
:101F9000B0F5804F0ED00620216800EAD51040F041
:101FA000F000086133463A460B49204600F070F8CD
:101FB00078B902E005F0FE0000E0E8B221680861AF
:101FC000054933463A46891F204600F061F800284B
:101FD000DCD00120F8BD00000800010070B51646F5
:101FE0000D4604460DE02046FFF793FF08B101209F
:101FF00070BD681C05D0FFF7E5F8801BA84207D824
:1020000035B120684069C0434007ECD4002070BD62
:10201000002044F8300F20216173A073216941F042
:10202000200121612073E2E72DE9F0471E4690462A
:102030000D460446C1F30747DDF8209008E0701C08
:1020400006D0FFF7BFF8A0EB0900B0420FD876B179
:102050002068012F18D0806925EA00000004000CD8
:1020600014D000214145EAD00020BDE8F0870020CF
:1020700044F8300F20216173A073216941F02001E1
:10208000216120730120F0E74069E5E70121E9E7DC
:102090002DE9F0479A4691460E46044600254FF03A
:1020A0002008C1F3074725E020684069C043400588
:1020B00014D42068016841F40071016021686FF454
:1020C00080604861256384F83D8084F83E50206C30
:1020D00040F00400206484F83C501FE0B9F1FF3F59
:1020E00008D0FFF76FF8A0EB0A0149450CD8B9F109
:1020F000000F09D02068012F13D0806926EA000064
:102100000004000C0BD0CFE744F8305F84F80D805A
:10211000A573206940F02000206125730120BDE8EF
:10212000F0874069EAE770B516460D4604460DE0B3
:102130002046FFF7EEFE08B1012070BD681C05D0F7
:10214000FFF740F8801BA84207D835B120684069E6
:10215000C0430006ECD4002070BD002044F8300FCE
:1021600020216173A073216941F020012161207356
:10217000E2E700007FB500251A4800950195029519
:1021800017490395C0E900150124856004610576AF
:1021900080F820502107C1620226C6614FF0C0615D
:1021A000C560816280F830404461FEF78FFC08B161
:1021B00072B6FEE7CDE9005469460A480295FEF77B
:1021C000A9FB08B172B6FEE7CDE9004669460548AD
:1021D0000294FEF79FFB002801D072B6FEE77FBD98
:1021E000002001403800002000B587B01421684667
:1021F000FEF77CF912480021026842F0800202607A
:10220000026802F080020592026842F00102026058
:10221000026802F001020592026842F002020260C6
:10222000006800F0020005900420CDE900010120C3
:10223000029069460348FEF7D5FE07B000BD0000D6
:10224000303802400000024010B58EB000240794E0
:10225000089409940A940B941C2168460C94FEF788
:1022600045F91D484FF08041016040F2CF21C0E99F
:1022700001144FF4FA51C0E903148461FFF7B4FC70
:1022800008B172B6FEE74FF48050079007A91248D4
:10229000FFF720FD08B172B6FEE70F48FFF7B1FD6A
:1022A00008B172B6FEE72020CDE90B040BA90A485D
:1022B000FFF75CFC08B172B6FEE70094019402944B
:1022C0000C22694604480494FFF772FD002801D0EF
:1022D00072B6FEE70EB010BDD4000020FEE7FEE7A8
:1022E00070477047FFF702B930B593B030216846A8
:1022F000FEF7FCF814210CA8FEF7F8F81C4800259E
:10230000016841F080510160006800F08050119038
:102310001848016841F4404101600068022400F45B
:102320004040119001200090000401908001CDE90F
:102330000640192008909020CDE9090404200B9054
:102340006846FFF749FA08B172B6FEE70CA90F20FC
:1023500081E831004FF48050CDE90F0502210CA82F
:10236000FFF75EF9002801D072B6FEE713B030BD6A
:1023700040380240007000400248016841F470019A
:102380000160704788ED00E0F0B502681D4B1E4CFF
:102390009F031E4D1E4E984207D0B84205D0A04262
:1023A00003D0A84201D0B04204D122F0700C4A6898
:1023B00042EA0C02984210D0B8420ED0A0420CD093
:1023C000A8420AD0B04208D0124CA04205D0124C0C
:1023D000A04202D0114CA04203D122F44074CA683A
:1023E00022434C6922F08002224302608A68C26262
:1023F0000A688262984201D1096901630121416141
:10240000F0BD000000000140000400400008004052
:10241000000C0040004001400044014000480140E1
:1024200010B501F01F030121046A99408C43046236
:10243000016A9A401143016210BD10B5846842EAF6
:10244000032224F47F440A432243826010BD826841
:1024500022F070020A4342F00701816070470000D9
:1024600030B5026A22F001020262026A436884699E
:1024700024F073050C682C4322F002058A682A4375
:102480000A4DA8420BD122F00805CA6823F4407314
:102490002A434D6922F004021D438B692B4343609C
:1024A000846149684163026230BD00000000014060
:1024B00030B5026A22F010020262026A436884693F
:1024C0000D6824F4E64444EA05248D6822F02002D5
:1024D00042EA05120B4DA8420ED1CD6822F08002CF
:1024E00042EA05124D6923F4406343EA85038D698E
:1024F00022F0400243EA85034360846149688163B6
:10250000026230BD0000014030B5026A22F48072E0
:102510000262036A4268C46923F4007324F07305FD
:102520000C682C438D6843EA05230C4DA8420ED15C
:10253000CD6823F4006343EA05234D6922F4405239
:1025400042EA05128D6923F4806342EA0512426073
:10255000C4614968C163036230BD000000000140EE
:1025600030B5026A22F480520262046A4268C3698A
:102570000D6823F4E64343EA05238D6824F40054F0
:1025800044EA0534064DA84204D14D6922F4804244
:1025900042EA85124260C36149680164046230BD49
:1025A0000000014010B5036A046A24F001040462CB
:1025B000846924F0F00444EA021423F00A020A4376
:1025C0008461026210BD10B5036A23F01003036238
:1025D0008369046A23F4704343EA023224F0A003BF
:1025E00043EA01118261016210BDFEE70907090E8D
:1025F000002804DB00F1E02080F80014704700F0B0
:102600000F0000F1E02080F8141D704710B500F0B5
:1026100008F8BDE81040012000F06EB8012000F07D
:102620004BB8012806D0022806D003280AD0042877
:1026300004D109E0491E00E03F31C9B241F08000F9
:1026400000F03AB81331F8E75331F6E710B530200F
:1026500000F032F80520FEF7B3FC302000F02CF833
:102660000120FEF7ADFC302000F026F80A20FEF72E
:10267000A7FC202000F020F80A20FEF7A1FC28206B
:1026800000F01AF80120FEF79BFC082000F014F877
:102690000120FEF795FC012000F00EF80120FEF766
:1026A0008FFC062000F008F80120FEF789FCBDE849
:1026B00010400C20AFF300801CB500F0F00141F099
:1026C0000C028DF8042041F0080100018DF805107E
:1026D00040F00C018DF8061040F008008DF807005E
:1026E00064200090042301AA4E210248FEF734FE24
:1026F0001CBD0000800000201CB500F0F00141F07E
:102700000D028DF8042041F0090100018DF805103B
:1027100040F00D018DF8061040F009008DF807001B
:1027200064200090042301AA4E210248FEF714FE03
:102730001CBD00008000002010B5044602E0641CAF
:10274000FFF7DAFF20780028F9D110BD08B5FEF7B1
:10275000D5FEFFF7C9FDFFF747FD93480024016848
:1027600041F4800101600068224600F4800000907E
:1027700021463820FEF722FF3820FEF711FFFFF731
:10278000F9FCFFF761FD8A48884901608949C0E981
:1027900001144FF48041C0E9034144618461C46184
:1027A0000462FEF715FD08B172B6FEE7804802220A
:1027B00081494838FEF700FA7D485430FFF754FA53
:1027C0007B480C215430FFF74BFB3220FEF7F8FB1F
:1027D000FFF73CFF4020FFF76FFF774D00240A35DD
:1027E000285DFFF789FF641C082CF9DB4820FFF700
:1027F00063FF714D00241235285DFFF77DFF641CD7
:10280000082CF9DB05210220FFF70BFF6BA0FFF777
:1028100093FF4FF4FA60FEF7D3FBFFF7FFFE0A20A9
:10282000FEF7CEFBDFF890B1ABF1020BABF1040683
:10283000A6F10409A6F10208A6F10804FDF702FDBD
:10284000C11700EB517121F00701401A401C5D4691
:102850008BF80000FDF7F6FCC11700EB517121F079
:102860000701401A083068704FF0000A4FEA050B64
:10287000FFF7D4FE0220FEF7A3FB002059464F4687
:102880000A5C3A54401CC0B20228F9D3617820781F
:10289000FFF7BCFE0025B946012019F8051000F02D
:1028A000A3F86D1CEDB2022DF6D30025022018F816
:1028B000051000F099F86D1CEDB2022DF6D300253D
:1028C0000320715D00F090F86D1CEDB2022DF7D37E
:1028D000394D00272D1F0420E95D00F085F87F1C8D
:1028E000FFB2022FF7D310210120FFF79AFE36A086
:1028F000FFF722FF10210220FFF793FE2E48001D54
:10290000FFF71AFF29786078814202D06978814206
:102910001ED1FFF783FE0220FEF752FB06210220A4
:10292000FFF77FFE2AA0FFF707FF06210320FFF72E
:1029300078FE2AA0FFF700FF0D210320FFF771FEAC
:102940001D48001DFFF7F8FEC820FEF739FBE0E741
:102950001E20FEF735FB0AF1010000F0FF0ABAF174
:10296000140F85D30020315C2954401CC0B20228CA
:10297000F9D3002041460A5C3254401CC0B2022800
:10298000F9D300204A46135C0B54401CC0B2022805
:10299000F9D3608813A1401C82B207486280001DF1
:1029A000FDF702FD4AE700003038024000540040C5
:1029B00080000020A08601000E00002047414D4508
:1029C000205354415254000073636F72650000003D
:1029D00047616D65204F76657200000073636F720A
:1029E000653A20002564000010B5FFF71AFEBDE827
:1029F00010400020FFF780BE4FF04070E1EE100A5B
:102A000070470006101600061016000000000000B7
:102A1000000001020304060708090000000001028B
:102A200003040000442A00080000002038000000D1
:102A3000D40100087C2A0008380000208808000023
:102A4000F0010008040A000000000000000000007F
:102A500000000000000000000000000004040E0E52
:102A60001F1B1B0E0C1E021F1F1E12000100000068
:0C2A700010000000000000000024F40032
:040000050800019955
:00000001FF
